:100000000C9434000C9461000C9461000C94610019
:100010000C9461000C9461000C9461000C946100DC
:100020000C9461000C9461000C9461000C946100CC
:100030000C9461000C9461000C9461000C946100BC
:100040000C9461000C9461000C9461000C946100AC
:100050000C9461000C9461000C9461000C9461009C
:100060000C9461000C94610011241FBECFEFD8E006
:10007000DEBFCDBF0E9440000C945600F894FFCF25
:100080008FEF85B92FEF89E698E1215080409040AD
:10009000E1F700C0000015B82FEF89E698E1215084
:0C00A00080409040E1F700C00000EACF73
:1000AC00EC010E9466000E946500CE010E94670070
:0600BC00CE010E9463006A
:0400C2000C9400009A
:0400C6000E943E0056
:0200CA00089597
:0200CC00089595
:0200CE00089593
:00000001FF
